:020000040000FA
:060000000A128A110E280D
:10000800FE00030EF5000408F6000A08F7000A12BD
:100018008A11B1280A128A111128F801F9018312EC
:100028000313B80183010A128A111A2883160313CD
:100038000F178F120F120F1414308316031789002D
:100048008801033083160313860085018701880120
:1000580083120313850186018701880133309F00CD
:10006800831603139F018112811101118114011458
:1000780064308312031381000B118B178B158B16B9
:100088000B17831603130C1764308312A700003074
:10009800A8003808B000B1013008A9003108AA004A
:1000A8000A128A112C210A128A11831203132708B3
:1000B800B2003208B7000A30A7000030A80038089C
:1000C800B000B1013008A2003108A3006430A000DC
:1000D8000030A1000A128A1195210A128A1183128E
:1000E80003132108AA002008A9000A128A112C214A
:1000F8000A128A11831203132708B2003208B600C5
:100108003808B000B1013008A2003108A3006430FB
:10011800A0000030A1000A128A1195210A128A1142
:10012800831203132108B4002008B3000A30A0008A
:100138000030A1003408A3003308A2000A128A1173
:1001480095210A128A11831203132008B00030087F
:10015800B50048280A128A110E28831203139F1427
:100168000C1FB728B828DA281F0CF300730C0F39B6
:100178000C3A031DC028C128C8281E0887001F087C
:10018800C33928389F00D9281F0CF300730C0F3986
:100198000A3A031DD028D128D9281E08F30073086D
:1001A800B8001F08C33930389F000C130B1DDD2819
:1001B800DE2822297D3081000B1188010F2937089C
:1001C8000A128A11F0210A128A1183120313880075
:1001D8008616061386130130F3007308F9072229DF
:1001E80036080A128A11F0210A128A11831203139F
:1001F8008800861206178613EF2835080A128A1116
:10020800F0210A128A11831203138800861206133A
:100218008617F90122297908F300F4017408003AD5
:100228000319172922297308003A0319E328013A08
:100238000319F428033A0319012922290B10770816
:100248008A0076088400750E8300FE0E7E0E090073
:1002580083120313AD01A81F322933293A29A709AC
:10026800A809A70A0319A80AAD01AD0AAA1F3D29C2
:100278003E294729A909AA09A90A0319AA0A013086
:10028800AB002B08AD06AE01AF01270828040319FF
:100298004E294F298629AC01AC0A5D29013003108B
:1002A800A70DA80DFF3E031D53290130AB002B08F5
:1002B800AC07A81F60296129522901300310AE0D2F
:1002C800AF0DFF3E031D622928082A02031D6E296F
:1002D80027082902031C7129722979292708A902EC
:1002E8002808031CAA03AA022E1401300310A80C24
:1002F800A70CFF3E031D7A290130AC02031D852996
:10030800862961292D0803198A298B299029AE0984
:10031800AF09AE0A0319AF0A2F08A8002E08A700D4
:10032800080083120313A601A31F9B299C29A32954
:10033800A209A309A20A0319A30AA601A60AA11FD2
:10034800A629A729AC29A009A109A00A0319A10A6D
:10035800200821040319B129B229E129A501A50A18
:10036800C02901300310A00DA10DFF3E031DB629C1
:100378000130A4002408A507A11FC329C429B52951
:1003880021082302031DCA2920082202031CCD29A3
:10039800CE29D4292008A2022108031CA303A30202
:1003A80001300310A10CA00CFF3E031DD52901301C
:1003B800A502031DE029E129C42926080319E52916
:1003C800E629EB29A209A309A20A0319A30A23080B
:1003D800A1002208A0000800F200062A3F302E2AB9
:1003E80006302E2A5B302E2A4F302E2A66302E2ACF
:1003F8006D302E2A7D302E2A07302E2A7F302E2A65
:1004080067302E2A7208F000F1017108003A0319CA
:100418000E2A2E2A7008003A0319F229013A031904
:10042800F429033A0319F629013A0319F829073A76
:100438000319FA29013A0319FC29033A0319FE2979
:10044800013A0319002A0F3A0319022A013A03193B
:06045800042A2E2A080010
:04400E00C430FF3F7C
:00000001FF
